{
  "abi": [
    {
      "inputs": [],
      "name": "AG_EUR",
      "outputs": [
        {
          "internalType": "address",
          "name": "",
          "type": "address"
        }
      ],
      "stateMutability": "view",
      "type": "function"
    },
    {
      "inputs": [],
      "name": "ANGLE",
      "outputs": [
        {
          "internalType": "address",
          "name": "",
          "type": "address"
        }
      ],
      "stateMutability": "view",
      "type": "function"
    },
    {
      "inputs": [],
      "name": "ANGLE_FEE_DITRIBUTOR",
      "outputs": [
        {
          "internalType": "address",
          "name": "",
          "type": "address"
        }
      ],
      "stateMutability": "view",
      "type": "function"
    },
    {
      "inputs": [],
      "name": "ANGLE_GAUGE_CONTROLLER",
      "outputs": [
        {
          "internalType": "address",
          "name": "",
          "type": "address"
        }
      ],
      "stateMutability": "view",
      "type": "function"
    },
    {
      "inputs": [],
      "name": "ANGLE_SMART_WALLET_CHECKER",
      "outputs": [
        {
          "internalType": "address",
          "name": "",
          "type": "address"
        }
      ],
      "stateMutability": "view",
      "type": "function"
    },
    {
      "inputs": [],
      "name": "ANGLE_STRATEGY",
      "outputs": [
        {
          "internalType": "address",
          "name": "",
          "type": "address"
        }
      ],
      "stateMutability": "view",
      "type": "function"
    },
    {
      "inputs": [],
      "name": "ANGLE_VOTER_V2",
      "outputs": [
        {
          "internalType": "address",
          "name": "",
          "type": "address"
        }
      ],
      "stateMutability": "view",
      "type": "function"
    },
    {
      "inputs": [],
      "name": "APW",
      "outputs": [
        {
          "internalType": "address",
          "name": "",
          "type": "address"
        }
      ],
      "stateMutability": "view",
      "type": "function"
    },
    {
      "inputs": [],
      "name": "APWINE_FEE_DISTRIBUTOR",
      "outputs": [
        {
          "internalType": "address",
          "name": "",
          "type": "address"
        }
      ],
      "stateMutability": "view",
      "type": "function"
    },
    {
      "inputs": [],
      "name": "APWINE_SMART_WALLET_CHECKER",
      "outputs": [
        {
          "internalType": "address",
          "name": "",
          "type": "address"
        }
      ],
      "stateMutability": "view",
      "type": "function"
    },
    {
      "inputs": [],
      "name": "BAL",
      "outputs": [
        {
          "internalType": "address",
          "name": "",
          "type": "address"
        }
      ],
      "stateMutability": "view",
      "type": "function"
    },
    {
      "inputs": [],
      "name": "BALANCER_ACCUMULATOR",
      "outputs": [
        {
          "internalType": "address",
          "name": "",
          "type": "address"
        }
      ],
      "stateMutability": "view",
      "type": "function"
    },
    {
      "inputs": [],
      "name": "BALANCER_FEE_DISTRIBUTOR",
      "outputs": [
        {
          "internalType": "address",
          "name": "",
          "type": "address"
        }
      ],
      "stateMutability": "view",
      "type": "function"
    },
    {
      "inputs": [],
      "name": "BALANCER_GAUGE_CONTROLLER",
      "outputs": [
        {
          "internalType": "address",
          "name": "",
          "type": "address"
        }
      ],
      "stateMutability": "view",
      "type": "function"
    },
    {
      "inputs": [],
      "name": "BALANCER_HELPER",
      "outputs": [
        {
          "internalType": "address",
          "name": "",
          "type": "address"
        }
      ],
      "stateMutability": "view",
      "type": "function"
    },
    {
      "inputs": [],
      "name": "BALANCER_LOCKER",
      "outputs": [
        {
          "internalType": "address",
          "name": "",
          "type": "address"
        }
      ],
      "stateMutability": "view",
      "type": "function"
    },
    {
      "inputs": [],
      "name": "BALANCER_MULTI_SIG",
      "outputs": [
        {
          "internalType": "address",
          "name": "",
          "type": "address"
        }
      ],
      "stateMutability": "view",
      "type": "function"
    },
    {
      "inputs": [],
      "name": "BALANCER_POOL_TOKEN",
      "outputs": [
        {
          "internalType": "address",
          "name": "",
          "type": "address"
        }
      ],
      "stateMutability": "view",
      "type": "function"
    },
    {
      "inputs": [],
      "name": "BALANCER_SMART_WALLET_CHECKER",
      "outputs": [
        {
          "internalType": "address",
          "name": "",
          "type": "address"
        }
      ],
      "stateMutability": "view",
      "type": "function"
    },
    {
      "inputs": [],
      "name": "BB_A_USD",
      "outputs": [
        {
          "internalType": "address",
          "name": "",
          "type": "address"
        }
      ],
      "stateMutability": "view",
      "type": "function"
    },
    {
      "inputs": [],
      "name": "BPT",
      "outputs": [
        {
          "internalType": "address",
          "name": "",
          "type": "address"
        }
      ],
      "stateMutability": "view",
      "type": "function"
    },
    {
      "inputs": [],
      "name": "BPT_DAO",
      "outputs": [
        {
          "internalType": "address",
          "name": "",
          "type": "address"
        }
      ],
      "stateMutability": "view",
      "type": "function"
    },
    {
      "inputs": [],
      "name": "BPT_FEE_DISTRIBUTOR",
      "outputs": [
        {
          "internalType": "address",
          "name": "",
          "type": "address"
        }
      ],
      "stateMutability": "view",
      "type": "function"
    },
    {
      "inputs": [],
      "name": "BPT_SMART_WALLET_CHECKER",
      "outputs": [
        {
          "internalType": "address",
          "name": "",
          "type": "address"
        }
      ],
      "stateMutability": "view",
      "type": "function"
    },
    {
      "inputs": [],
      "name": "CRV",
      "outputs": [
        {
          "internalType": "address",
          "name": "",
          "type": "address"
        }
      ],
      "stateMutability": "view",
      "type": "function"
    },
    {
      "inputs": [],
      "name": "CRV3",
      "outputs": [
        {
          "internalType": "address",
          "name": "",
          "type": "address"
        }
      ],
      "stateMutability": "view",
      "type": "function"
    },
    {
      "inputs": [],
      "name": "CRV_GAUGE_3CRV",
      "outputs": [
        {
          "internalType": "address",
          "name": "",
          "type": "address"
        }
      ],
      "stateMutability": "view",
      "type": "function"
    },
    {
      "inputs": [],
      "name": "CRV_GAUGE_EUR3",
      "outputs": [
        {
          "internalType": "address",
          "name": "",
          "type": "address"
        }
      ],
      "stateMutability": "view",
      "type": "function"
    },
    {
      "inputs": [],
      "name": "CRV_GAUGE_SDT_ETH",
      "outputs": [
        {
          "internalType": "address",
          "name": "",
          "type": "address"
        }
      ],
      "stateMutability": "view",
      "type": "function"
    },
    {
      "inputs": [],
      "name": "CRV_POOL_SDT_ETH",
      "outputs": [
        {
          "internalType": "address",
          "name": "",
          "type": "address"
        }
      ],
      "stateMutability": "view",
      "type": "function"
    },
    {
      "inputs": [],
      "name": "CRV_SMART_WALLET_CHECKER",
      "outputs": [
        {
          "internalType": "address",
          "name": "",
          "type": "address"
        }
      ],
      "stateMutability": "view",
      "type": "function"
    },
    {
      "inputs": [],
      "name": "CURVE_FEE_DISTRIBUTOR",
      "outputs": [
        {
          "internalType": "address",
          "name": "",
          "type": "address"
        }
      ],
      "stateMutability": "view",
      "type": "function"
    },
    {
      "inputs": [],
      "name": "CURVE_PROTOCOL_GC",
      "outputs": [
        {
          "internalType": "address",
          "name": "",
          "type": "address"
        }
      ],
      "stateMutability": "view",
      "type": "function"
    },
    {
      "inputs": [],
      "name": "CURVE_PROTOCOL_VOTER",
      "outputs": [
        {
          "internalType": "address",
          "name": "",
          "type": "address"
        }
      ],
      "stateMutability": "view",
      "type": "function"
    },
    {
      "inputs": [],
      "name": "CURVE_STRATEGY",
      "outputs": [
        {
          "internalType": "address",
          "name": "",
          "type": "address"
        }
      ],
      "stateMutability": "view",
      "type": "function"
    },
    {
      "inputs": [],
      "name": "DAI",
      "outputs": [
        {
          "internalType": "address",
          "name": "",
          "type": "address"
        }
      ],
      "stateMutability": "view",
      "type": "function"
    },
    {
      "inputs": [],
      "name": "DAY",
      "outputs": [
        {
          "internalType": "uint256",
          "name": "",
          "type": "uint256"
        }
      ],
      "stateMutability": "view",
      "type": "function"
    },
    {
      "inputs": [],
      "name": "EUR3",
      "outputs": [
        {
          "internalType": "address",
          "name": "",
          "type": "address"
        }
      ],
      "stateMutability": "view",
      "type": "function"
    },
    {
      "inputs": [],
      "name": "FEE_D_SD",
      "outputs": [
        {
          "internalType": "address",
          "name": "",
          "type": "address"
        }
      ],
      "stateMutability": "view",
      "type": "function"
    },
    {
      "inputs": [],
      "name": "FRAX",
      "outputs": [
        {
          "internalType": "address",
          "name": "",
          "type": "address"
        }
      ],
      "stateMutability": "view",
      "type": "function"
    },
    {
      "inputs": [],
      "name": "FRAX_GAUGE_CONTROLLER",
      "outputs": [
        {
          "internalType": "address",
          "name": "",
          "type": "address"
        }
      ],
      "stateMutability": "view",
      "type": "function"
    },
    {
      "inputs": [],
      "name": "FRAX_SMART_WALLET_CHECKER",
      "outputs": [
        {
          "internalType": "address",
          "name": "",
          "type": "address"
        }
      ],
      "stateMutability": "view",
      "type": "function"
    },
    {
      "inputs": [],
      "name": "FRAX_YIELD_DISTRIBUTOR",
      "outputs": [
        {
          "internalType": "address",
          "name": "",
          "type": "address"
        }
      ],
      "stateMutability": "view",
      "type": "function"
    },
    {
      "inputs": [],
      "name": "FXS",
      "outputs": [
        {
          "internalType": "address",
          "name": "",
          "type": "address"
        }
      ],
      "stateMutability": "view",
      "type": "function"
    },
    {
      "inputs": [],
      "name": "FXS_WHALE",
      "outputs": [
        {
          "internalType": "address",
          "name": "",
          "type": "address"
        }
      ],
      "stateMutability": "view",
      "type": "function"
    },
    {
      "inputs": [],
      "name": "LDO",
      "outputs": [
        {
          "internalType": "address",
          "name": "",
          "type": "address"
        }
      ],
      "stateMutability": "view",
      "type": "function"
    },
    {
      "inputs": [],
      "name": "MASTERCHEF",
      "outputs": [
        {
          "internalType": "address",
          "name": "",
          "type": "address"
        }
      ],
      "stateMutability": "view",
      "type": "function"
    },
    {
      "inputs": [],
      "name": "OHM",
      "outputs": [
        {
          "internalType": "address",
          "name": "",
          "type": "address"
        }
      ],
      "stateMutability": "view",
      "type": "function"
    },
    {
      "inputs": [],
      "name": "OLD_CRV_LOCKER",
      "outputs": [
        {
          "internalType": "address",
          "name": "",
          "type": "address"
        }
      ],
      "stateMutability": "view",
      "type": "function"
    },
    {
      "inputs": [],
      "name": "PROXY_ADMIN",
      "outputs": [
        {
          "internalType": "address",
          "name": "",
          "type": "address"
        }
      ],
      "stateMutability": "view",
      "type": "function"
    },
    {
      "inputs": [],
      "name": "SAN_DAI_EUR",
      "outputs": [
        {
          "internalType": "address",
          "name": "",
          "type": "address"
        }
      ],
      "stateMutability": "view",
      "type": "function"
    },
    {
      "inputs": [],
      "name": "SAN_USDC_EUR",
      "outputs": [
        {
          "internalType": "address",
          "name": "",
          "type": "address"
        }
      ],
      "stateMutability": "view",
      "type": "function"
    },
    {
      "inputs": [],
      "name": "SD3CRV",
      "outputs": [
        {
          "internalType": "address",
          "name": "",
          "type": "address"
        }
      ],
      "stateMutability": "view",
      "type": "function"
    },
    {
      "inputs": [],
      "name": "SDFRAX3CRV",
      "outputs": [
        {
          "internalType": "address",
          "name": "",
          "type": "address"
        }
      ],
      "stateMutability": "view",
      "type": "function"
    },
    {
      "inputs": [],
      "name": "SDT",
      "outputs": [
        {
          "internalType": "address",
          "name": "",
          "type": "address"
        }
      ],
      "stateMutability": "view",
      "type": "function"
    },
    {
      "inputs": [],
      "name": "SDTNEWDEPLOYER",
      "outputs": [
        {
          "internalType": "address",
          "name": "",
          "type": "address"
        }
      ],
      "stateMutability": "view",
      "type": "function"
    },
    {
      "inputs": [],
      "name": "SDT_DISTRIBUTOR",
      "outputs": [
        {
          "internalType": "address",
          "name": "",
          "type": "address"
        }
      ],
      "stateMutability": "view",
      "type": "function"
    },
    {
      "inputs": [],
      "name": "SDT_DISTRIBUTOR_STRAT",
      "outputs": [
        {
          "internalType": "address",
          "name": "",
          "type": "address"
        }
      ],
      "stateMutability": "view",
      "type": "function"
    },
    {
      "inputs": [],
      "name": "SDT_SMART_WALLET_CHECKER",
      "outputs": [
        {
          "internalType": "address",
          "name": "",
          "type": "address"
        }
      ],
      "stateMutability": "view",
      "type": "function"
    },
    {
      "inputs": [],
      "name": "STAKE_DAO_MULTISIG",
      "outputs": [
        {
          "internalType": "address",
          "name": "",
          "type": "address"
        }
      ],
      "stateMutability": "view",
      "type": "function"
    },
    {
      "inputs": [],
      "name": "STDDEPLOYER",
      "outputs": [
        {
          "internalType": "address",
          "name": "",
          "type": "address"
        }
      ],
      "stateMutability": "view",
      "type": "function"
    },
    {
      "inputs": [],
      "name": "STECRV",
      "outputs": [
        {
          "internalType": "address",
          "name": "",
          "type": "address"
        }
      ],
      "stateMutability": "view",
      "type": "function"
    },
    {
      "inputs": [],
      "name": "SUSHI",
      "outputs": [
        {
          "internalType": "address",
          "name": "",
          "type": "address"
        }
      ],
      "stateMutability": "view",
      "type": "function"
    },
    {
      "inputs": [],
      "name": "TEMPLE",
      "outputs": [
        {
          "internalType": "address",
          "name": "",
          "type": "address"
        }
      ],
      "stateMutability": "view",
      "type": "function"
    },
    {
      "inputs": [],
      "name": "TIMELOCK",
      "outputs": [
        {
          "internalType": "address",
          "name": "",
          "type": "address"
        }
      ],
      "stateMutability": "view",
      "type": "function"
    },
    {
      "inputs": [],
      "name": "USDC",
      "outputs": [
        {
          "internalType": "address",
          "name": "",
          "type": "address"
        }
      ],
      "stateMutability": "view",
      "type": "function"
    },
    {
      "inputs": [],
      "name": "VEANGLE",
      "outputs": [
        {
          "internalType": "address",
          "name": "",
          "type": "address"
        }
      ],
      "stateMutability": "view",
      "type": "function"
    },
    {
      "inputs": [],
      "name": "VEAPW",
      "outputs": [
        {
          "internalType": "address",
          "name": "",
          "type": "address"
        }
      ],
      "stateMutability": "view",
      "type": "function"
    },
    {
      "inputs": [],
      "name": "VEBPT",
      "outputs": [
        {
          "internalType": "address",
          "name": "",
          "type": "address"
        }
      ],
      "stateMutability": "view",
      "type": "function"
    },
    {
      "inputs": [],
      "name": "VESDCRV",
      "outputs": [
        {
          "internalType": "address",
          "name": "",
          "type": "address"
        }
      ],
      "stateMutability": "view",
      "type": "function"
    },
    {
      "inputs": [],
      "name": "VE_BAL",
      "outputs": [
        {
          "internalType": "address",
          "name": "",
          "type": "address"
        }
      ],
      "stateMutability": "view",
      "type": "function"
    },
    {
      "inputs": [],
      "name": "VE_CRV",
      "outputs": [
        {
          "internalType": "address",
          "name": "",
          "type": "address"
        }
      ],
      "stateMutability": "view",
      "type": "function"
    },
    {
      "inputs": [],
      "name": "VE_FXS",
      "outputs": [
        {
          "internalType": "address",
          "name": "",
          "type": "address"
        }
      ],
      "stateMutability": "view",
      "type": "function"
    },
    {
      "inputs": [],
      "name": "VE_SDT",
      "outputs": [
        {
          "internalType": "address",
          "name": "",
          "type": "address"
        }
      ],
      "stateMutability": "view",
      "type": "function"
    },
    {
      "inputs": [],
      "name": "VE_SDT_BOOST_PROXY",
      "outputs": [
        {
          "internalType": "address",
          "name": "",
          "type": "address"
        }
      ],
      "stateMutability": "view",
      "type": "function"
    },
    {
      "inputs": [],
      "name": "VE_YFI",
      "outputs": [
        {
          "internalType": "address",
          "name": "",
          "type": "address"
        }
      ],
      "stateMutability": "view",
      "type": "function"
    },
    {
      "inputs": [],
      "name": "WBTC",
      "outputs": [
        {
          "internalType": "address",
          "name": "",
          "type": "address"
        }
      ],
      "stateMutability": "view",
      "type": "function"
    },
    {
      "inputs": [],
      "name": "WEEK",
      "outputs": [
        {
          "internalType": "uint256",
          "name": "",
          "type": "uint256"
        }
      ],
      "stateMutability": "view",
      "type": "function"
    },
    {
      "inputs": [],
      "name": "WETH",
      "outputs": [
        {
          "internalType": "address",
          "name": "",
          "type": "address"
        }
      ],
      "stateMutability": "view",
      "type": "function"
    },
    {
      "inputs": [],
      "name": "WSTETH",
      "outputs": [
        {
          "internalType": "address",
          "name": "",
          "type": "address"
        }
      ],
      "stateMutability": "view",
      "type": "function"
    },
    {
      "inputs": [],
      "name": "YEAR",
      "outputs": [
        {
          "internalType": "uint256",
          "name": "",
          "type": "uint256"
        }
      ],
      "stateMutability": "view",
      "type": "function"
    },
    {
      "inputs": [],
      "name": "YFI",
      "outputs": [
        {
          "internalType": "address",
          "name": "",
          "type": "address"
        }
      ],
      "stateMutability": "view",
      "type": "function"
    },
    {
      "inputs": [],
      "name": "YFI_REWARD_POOL",
      "outputs": [
        {
          "internalType": "address",
          "name": "",
          "type": "address"
        }
      ],
      "stateMutability": "view",
      "type": "function"
    },
    {
      "inputs": [],
      "name": "ZERO_ADDRESS",
      "outputs": [
        {
          "internalType": "address",
          "name": "",
          "type": "address"
        }
      ],
      "stateMutability": "view",
      "type": "function"
    }
  ],
  "bytecode": {
    "object": "0x610d9861003a600b82828239805160001a60731461002d57634e487b7160e01b600052600060045260246000fd5b30600052607381538281f3fe73000000000000000000000000000000000000000030146080604052600436106104b65760003560e01c806382d778fa11610277578063bfa97af91161015b578063d9fb643a116100d8578063eae6660b1161009c578063eae6660b14610cd1578063ed9bc82a14610cec578063ef78ac5a14610d07578063f2a94ca614610d22578063f4359ce514610d3d578063f648407b14610d4757600080fd5b8063d9fb643a14610c4a578063de13dfc514610c65578063de64086514610c80578063e0bab4c414610c9b578063e3692c3614610cb657600080fd5b8063cd5ac4001161011f578063cd5ac40014610bc3578063d3aead3714610bde578063d6c3659b14610bf9578063d82d41ac14610c14578063d88bba1114610c2f57600080fd5b8063bfa97af914610b3c578063c2ecedcb14610b57578063c3fe2d3414610b72578063cc6b1e9614610b8d578063cd28db2414610ba857600080fd5b8063a1e88c4c116101f4578063ae396ab2116101b8578063ae396ab214610a9a578063aeda66db14610ab5578063b0e4556f14610ad0578063ba32c61914610aeb578063bebd26e014610b06578063beeadf1614610b2157600080fd5b8063a1e88c4c14610a13578063a6c41fec14610a2e578063ab560e1014610a49578063ac27a0f214610a64578063ad5c464814610a7f57600080fd5b80638e50403d1161023b5780638e50403d1461098c5780638f516ae0146109a75780638fa2b36b146109c2578063945c9142146109dd5780639781b06a146109f857600080fd5b806382d778fa14610915578063839145401461093057806384eb56351461093b57806386cf1b501461095657806389a302711461097157600080fd5b80634946cd411161039e57806358a13f081161031b5780637258563c116102df5780637258563c1461088e57806372a30d26146108a957806377c669d5146105b05780637aadef8b146108c45780637c843919146108df578063804cca0a146108fa57600080fd5b806358a13f081461080757806362e43c69146108225780636547e43f1461083d57806366a8b9971461085857806370e1339d1461087357600080fd5b806350e23d001161036257806350e23d0014610793578063510b78d0146107ae5780635188c87a146107c9578063538ba4f9146107e4578063560a8b78146107ec57600080fd5b80634946cd411461070c5780634c53f83f146107275780634dede3de146107425780634f0640861461075d578063506d1f811461077857600080fd5b80632ad078d51161043757806340fbd677116103fb57806340fbd6771461066a578063415b1f401461068557806341e5fb5e146106a05780634310bded146106bb57806346e8d40d146106d6578063474857e0146106f157600080fd5b80632ad078d5146105e3578063313359b1146105fe57806331b43d7c146106195780633803515b146106345780633a3c73851461064f57600080fd5b80631681511c1161047e5780631681511c1461055f5780631b3874691461057a5780631fc2cb5014610595578063200ea222146105b057806327cfe856146105cb57600080fd5b806301879778146104bb578063021ccad6146104f35780630b843f0d1461050e5780630f24f599146105295780631034821e14610544575b600080fd5b6104d6730c30476f66034e11782938df8e4384970b6c9e8a81565b6040516001600160a01b0390911681526020015b60405180910390f35b6104d673ff23e40ac05d30df46c250dd4d784f6496a79ce981565b6104d673b17640796e4c27a39af51887aff3f8dc0daf956781565b6104d6731e212e054d74ed136256fc5a5dddb4867c6e003f81565b6104d6739a211c972aebf2ae70f1ec14845848baab79d6af81565b6104d673aa241ccd398fec742f463c534a610529dcc5888e81565b6104d673bfcf63294ad7105dea65aa58f8ae5be2d9d0952a81565b6104d673a13a9247ea42d743238089903570127dda72fe4481565b6104d6733432b6a60d23ca0dfca7761b7ab56459d9c964d081565b6105d56201518081565b6040519081526020016104ea565b6104d67319886a88047350482990d4edd0c1b863646ab92181565b6104d67331429d1856ad1377a8a0079410b297e1a9e214c281565b6104d673b36a0671b3d49587236d7833b01e79798175875f81565b6104d673c128a9954e6c874ea3d62ce62b468ba073093f2581565b6104d67360355587a8d4aa67c2e64060ab36e566b9bcc00081565b6104d673a464e6dcda8ac41e03616f95f4bc98a13b8922dc81565b6104d673e478de485ad2fe566d49342cbd03e49ed7db335681565b6104d673add223b33ef85f79cb2fd0263881ffab2c93918a81565b6104d67322635427c72e8b0028feae1b5e1957508d9d7caf81565b6104d673babe5d223fb31a37ce184481678a6667ac8cd98b81565b6104d6739c99dffc1de1aff7e7c1f36fcdd49063a281e18c81565b6104d67320f1d4fed24073a9b9d388afa2735ac91f079ed681565b6104d6737b8e89b0ce7bac2cfec92a371da899ea8cbdb45081565b6104d6732260fac5e5542a773aa44fbcfedf7c193bc2c59981565b6104d6730ec9f76202a7061eb9b3a7d6b59d36215a7e37da81565b6104d673c8418af6358ffdda74e09ca9cc3fe03ca6adc5b081565b6104d673470ebf5f030ed85fc1ed4c2d36b9dd02e77cf1b781565b6104d6736c3f90f043a72fa612cbac8115ee7e52bde6e49081565b6104d673ea79d1a83da6db43a85942767c389fe0acf336a581565b6104d6600081565b6104d6730c462dbb9ec8cd1630f1728b2cfd2769d09f0dd581565b6104d6738dc551b4f5203b51b5366578f42060666d42ab5e81565b6104d6730de5199779b43e13b3bec21e91117e18736bc1a881565b6104d67390c1f9220d90d3966fbee24045edd73e1d588ad581565b6104d6735af15da84a4a6edf2d9fa6720de921e1026e37b781565b6104d67329f3dd38db24d3935cf1bf841e6b2b461a3e5d9281565b6104d67344ade9aa409b0c29463ff7fcf07c9d3c939166ce81565b6104d67353c13ba8834a1567474b19822aad85c6f90d9f9f81565b6104d673d3cfc4e65a73bb6c482383eb38f5c3e1d141161681565b6104d6739c215206da4bf108ae5aeef9da7cad3352a36dad81565b6104d6735c6ee304399dbdb9c8ef030ab642b10820db8f5681565b6104d673354743132e75e417344bcfdded6a04514055641481565b6105d56301e1338081565b6104d67310a19e7ee7d7f8a52822f6817de8ea18204f2e4f81565b6104d6736359b6d3e327c497453d4376561ee276c693332381565b6104d673a0b86991c6218b36c1d19d4a2e9eb0ce3606eb4881565b6104d673c5ca1ebf6e912e49a6a70bb0385ea065061a4f0981565b6104d673322a3fb2f628085749e5f1151aa9a32eb50d351981565b6104d6735f3b5dfeb7b28cdbd7faba78963ee202a494e2a281565b6104d673d533a949740bb3306d119cc777fa900ba034cd5281565b6104d673b9446c4ef5ebe66268da6700d26f96273de3d57181565b6104d67337e8386602d9ebea2c56dd11d8e142290595f1b581565b6104d67364aa3364f17a4d01c6f1751fd97c2bd3d7e7f1d581565b6104d6736b3595068778dd592e39a122f4f5a5cf09c90fe281565b6104d673d67bdbeff01fc492f1864e61756e5fbb3f17350681565b6104d673c02aaa39b223fe8d0a0e5c4f27ead9083c756cc281565b6104d67306325440d014e39736583c165c2963ba99faf14e81565b6104d6739ad7e7b0877582e14c17702eecf49018dd6f236781565b6104d673853d955acef822db058eb8505911ed77f175b99e81565b6104d67373968b9a57c6e53d41345fd57a6e6ae27d6cdb2f81565b6104d673b287a1964aee422911c7b8409f5e5a273c1412fa81565b6104d673ba100000625a3754423978a60c9317c58a424e3d81565b6104d67307dff52fb8b38e55e6ecb407913cd847396af4f081565b6104d6732f50d538606fa9edd2b11e2446beb18c9d5846bb81565b6104d6734104b135dbc9609fc1a9490e61369036497660c881565b6104d673c128468b7ce63ea702c1f104d55a2566b13d3abd81565b6104d673b0463ba57d6aadf85838f354057f9e4b69bfa4d681565b6104d6737869296efd0a76872fee62a058c8fbca5c1c826c81565b6104d673c6764e58b36e26b08fd1d2aed4538c02171fa87281565b6104d673ca719728ef172d0961768581fdf35cb116e0b7a481565b6104d6730bc529c00c6401aef6d220be8c6ea1667f6ad93e81565b6104d6735a98fcbea516cf06857215779fd812ca3bef1b3281565b6104d6737f39c581f595b53c5cb19bd0b3f8da6c935e2ca081565b6104d6737f82ff050128e29fd89d85d01b93246f744e62a081565b6104d67352f541764e6e90eebc5c21ff570de0e2d63766b681565b6104d6736b175474e89094c44da98b954eedeac495271d0f81565b6104d673fea5e213bbd81a8a94d0e1edb09dbd7ceab61e1c81565b6104d6731a7e4e63778b4f12a199c062f3efdd288afcbce881565b6104d673fe612c237a81527a86f2cac1fd19939cf4f91b9b81565b6104d673478bbc744811ee8310b461514bdc29d03739084d81565b6104d6735addcca35b7a0d07c74063c48700c8590e87864e81565b6105d562093a8081565b6104d67326743984e3357efc59f2fd6c1afdc310335a61c98156fea264697066735822122057bf6d7da54c3b521a859a3fd9374751154c0cd371460490ecd5b6b7911aa6d564736f6c63430008070033",
    "linkReferences": {}
  },
  "methodIdentifiers": {
    "AG_EUR()": "eae6660b",
    "ANGLE()": "313359b1",
    "ANGLE_FEE_DITRIBUTOR()": "de13dfc5",
    "ANGLE_GAUGE_CONTROLLER()": "aeda66db",
    "ANGLE_SMART_WALLET_CHECKER()": "1681511c",
    "ANGLE_STRATEGY()": "4310bded",
    "ANGLE_VOTER_V2()": "46e8d40d",
    "APW()": "c3fe2d34",
    "APWINE_FEE_DISTRIBUTOR()": "82d778fa",
    "APWINE_SMART_WALLET_CHECKER()": "cd28db24",
    "BAL()": "beeadf16",
    "BALANCER_ACCUMULATOR()": "1034821e",
    "BALANCER_FEE_DISTRIBUTOR()": "f648407b",
    "BALANCER_GAUGE_CONTROLLER()": "cc6b1e96",
    "BALANCER_HELPER()": "f2a94ca6",
    "BALANCER_LOCKER()": "5188c87a",
    "BALANCER_MULTI_SIG()": "84eb5635",
    "BALANCER_POOL_TOKEN()": "804cca0a",
    "BALANCER_SMART_WALLET_CHECKER()": "cd5ac400",
    "BB_A_USD()": "1fc2cb50",
    "BPT()": "4f064086",
    "BPT_DAO()": "bfa97af9",
    "BPT_FEE_DISTRIBUTOR()": "021ccad6",
    "BPT_SMART_WALLET_CHECKER()": "41e5fb5e",
    "CRV()": "945c9142",
    "CRV3()": "510b78d0",
    "CRV_GAUGE_3CRV()": "1b387469",
    "CRV_GAUGE_EUR3()": "0f24f599",
    "CRV_GAUGE_SDT_ETH()": "3a3c7385",
    "CRV_POOL_SDT_ETH()": "86cf1b50",
    "CRV_SMART_WALLET_CHECKER()": "d6c3659b",
    "CURVE_FEE_DISTRIBUTOR()": "40fbd677",
    "CURVE_PROTOCOL_GC()": "c2ecedcb",
    "CURVE_PROTOCOL_VOTER()": "415b1f40",
    "CURVE_STRATEGY()": "4946cd41",
    "DAI()": "e0bab4c4",
    "DAY()": "27cfe856",
    "EUR3()": "9781b06a",
    "FEE_D_SD()": "70e1339d",
    "FRAX()": "b0e4556f",
    "FRAX_GAUGE_CONTROLLER()": "7258563c",
    "FRAX_SMART_WALLET_CHECKER()": "72a30d26",
    "FRAX_YIELD_DISTRIBUTOR()": "d3aead37",
    "FXS()": "200ea222",
    "FXS_WHALE()": "8f516ae0",
    "LDO()": "d88bba11",
    "MASTERCHEF()": "e3692c36",
    "OHM()": "a6c41fec",
    "OLD_CRV_LOCKER()": "de640865",
    "PROXY_ADMIN()": "ed9bc82a",
    "SAN_DAI_EUR()": "4c53f83f",
    "SAN_USDC_EUR()": "7c843919",
    "SD3CRV()": "0b843f0d",
    "SDFRAX3CRV()": "66a8b997",
    "SDT()": "ba32c619",
    "SDTNEWDEPLOYER()": "62e43c69",
    "SDT_DISTRIBUTOR()": "58a13f08",
    "SDT_DISTRIBUTOR_STRAT()": "474857e0",
    "SDT_SMART_WALLET_CHECKER()": "a1e88c4c",
    "STAKE_DAO_MULTISIG()": "77c669d5",
    "STDDEPLOYER()": "31b43d7c",
    "STECRV()": "ae396ab2",
    "SUSHI()": "ab560e10",
    "TEMPLE()": "50e23d00",
    "TIMELOCK()": "7aadef8b",
    "USDC()": "89a30271",
    "VEANGLE()": "560a8b78",
    "VEAPW()": "8e50403d",
    "VEBPT()": "2ad078d5",
    "VESDCRV()": "ef78ac5a",
    "VE_BAL()": "3803515b",
    "VE_CRV()": "8fa2b36b",
    "VE_FXS()": "506d1f81",
    "VE_SDT()": "01879778",
    "VE_SDT_BOOST_PROXY()": "ac27a0f2",
    "VE_YFI()": "6547e43f",
    "WBTC()": "4dede3de",
    "WEEK()": "f4359ce5",
    "WETH()": "ad5c4648",
    "WSTETH()": "d9fb643a",
    "YEAR()": "83914540",
    "YFI()": "d82d41ac",
    "YFI_REWARD_POOL()": "bebd26e0",
    "ZERO_ADDRESS()": "538ba4f9"
  },
  "id": 0
}